{
	"contracts/4_Try.sol": {
		"Try": {
			"abi": [
				{
					"inputs": [],
					"stateMutability": "nonpayable",
					"type": "constructor"
				},
				{
					"inputs": [],
					"name": "compareDates",
					"outputs": [],
					"stateMutability": "nonpayable",
					"type": "function"
				},
				{
					"inputs": [],
					"name": "encrypt",
					"outputs": [],
					"stateMutability": "nonpayable",
					"type": "function"
				},
				{
					"inputs": [
						{
							"internalType": "uint256",
							"name": "_dept",
							"type": "uint256"
						}
					],
					"name": "enterYourDept",
					"outputs": [],
					"stateMutability": "nonpayable",
					"type": "function"
				},
				{
					"inputs": [],
					"name": "getDept",
					"outputs": [
						{
							"internalType": "uint256",
							"name": "",
							"type": "uint256"
						}
					],
					"stateMutability": "view",
					"type": "function"
				},
				{
					"inputs": [],
					"name": "isUserHasDept",
					"outputs": [
						{
							"internalType": "string",
							"name": "",
							"type": "string"
						}
					],
					"stateMutability": "view",
					"type": "function"
				},
				{
					"inputs": [],
					"name": "showDayDiff",
					"outputs": [
						{
							"internalType": "uint256",
							"name": "",
							"type": "uint256"
						}
					],
					"stateMutability": "view",
					"type": "function"
				},
				{
					"inputs": [],
					"name": "showEncrypt",
					"outputs": [
						{
							"internalType": "uint256",
							"name": "",
							"type": "uint256"
						}
					],
					"stateMutability": "view",
					"type": "function"
				}
			],
			"devdoc": {
				"kind": "dev",
				"methods": {},
				"version": 1
			},
			"evm": {
				"assembly": "    /* \"contracts/4_Try.sol\":74:2560  contract Try{\r... */\n  mstore(0x40, 0x80)\n    /* \"contracts/4_Try.sol\":125:130  false */\n  0x00\n    /* \"contracts/4_Try.sol\":95:130  bool private isThereAnyDept = false */\n  dup1\n  exp(0x0100, 0x00)\n  dup2\n  sload\n  dup2\n  0xff\n  mul\n  not\n  and\n  swap1\n  dup4\n  iszero\n  iszero\n  mul\n  or\n  swap1\n  sstore\n  pop\n    /* \"contracts/4_Try.sol\":336:346  1648857600 */\n  0x62479200\n    /* \"contracts/4_Try.sol\":313:346  uint private endDate = 1648857600 */\n  0x07\n  sstore\n    /* \"contracts/4_Try.sol\":394:670  constructor(){\r... */\n  callvalue\n  dup1\n  iszero\n  tag_1\n  jumpi\n  0x00\n  dup1\n  revert\ntag_1:\n  pop\n    /* \"contracts/4_Try.sol\":430:445  block.timestamp */\n  timestamp\n    /* \"contracts/4_Try.sol\":418:427  startDate */\n  0x06\n    /* \"contracts/4_Try.sol\":418:445  startDate = block.timestamp */\n  dup2\n  swap1\n  sstore\n  pop\n    /* \"contracts/4_Try.sol\":544:545  3 */\n  0x03\n    /* \"contracts/4_Try.sol\":533:541  interest */\n  0x05\n    /* \"contracts/4_Try.sol\":533:545  interest = 3 */\n  dup2\n  swap1\n  sstore\n  pop\n    /* \"contracts/4_Try.sol\":615:616  1 */\n  0x01\n    /* \"contracts/4_Try.sol\":601:612  digitOfDept */\n  0x03\n    /* \"contracts/4_Try.sol\":601:616  digitOfDept = 1 */\n  dup2\n  swap1\n  sstore\n  pop\n    /* \"contracts/4_Try.sol\":74:2560  contract Try{\r... */\n  dataSize(sub_0)\n  dup1\n  dataOffset(sub_0)\n  0x00\n  codecopy\n  0x00\n  return\nstop\n\nsub_0: assembly {\n        /* \"contracts/4_Try.sol\":74:2560  contract Try{\r... */\n      mstore(0x40, 0x80)\n      callvalue\n      dup1\n      iszero\n      tag_1\n      jumpi\n      0x00\n      dup1\n      revert\n    tag_1:\n      pop\n      jumpi(tag_2, lt(calldatasize, 0x04))\n      shr(0xe0, calldataload(0x00))\n      dup1\n      0x8899db5a\n      gt\n      tag_10\n      jumpi\n      dup1\n      0x8899db5a\n      eq\n      tag_6\n      jumpi\n      dup1\n      0xb76ab50f\n      eq\n      tag_7\n      jumpi\n      dup1\n      0xc56a0ef5\n      eq\n      tag_8\n      jumpi\n      dup1\n      0xda1569fb\n      eq\n      tag_9\n      jumpi\n      jump(tag_2)\n    tag_10:\n      dup1\n      0x125873f7\n      eq\n      tag_3\n      jumpi\n      dup1\n      0x2b645fe0\n      eq\n      tag_4\n      jumpi\n      dup1\n      0x4fb97829\n      eq\n      tag_5\n      jumpi\n    tag_2:\n      0x00\n      dup1\n      revert\n        /* \"contracts/4_Try.sol\":1747:1906  function showDayDiff() public view returns (uint){\r... */\n    tag_3:\n      tag_11\n      tag_12\n      jump\t// in\n    tag_11:\n      mload(0x40)\n      tag_13\n      swap2\n      swap1\n      tag_14\n      jump\t// in\n    tag_13:\n      mload(0x40)\n      dup1\n      swap2\n      sub\n      swap1\n      return\n        /* \"contracts/4_Try.sol\":911:1312  function compareDates() public{\r... */\n    tag_4:\n      tag_15\n      tag_16\n      jump\t// in\n    tag_15:\n      stop\n        /* \"contracts/4_Try.sol\":722:797  function enterYourDept(uint256 _dept) public{\r... */\n    tag_5:\n      tag_17\n      0x04\n      dup1\n      calldatasize\n      sub\n      dup2\n      add\n      swap1\n      tag_18\n      swap2\n      swap1\n      tag_19\n      jump\t// in\n    tag_18:\n      tag_20\n      jump\t// in\n    tag_17:\n      stop\n        /* \"contracts/4_Try.sol\":1979:2417  function encrypt() public{\r... */\n    tag_6:\n      tag_21\n      tag_22\n      jump\t// in\n    tag_21:\n      stop\n        /* \"contracts/4_Try.sol\":1496:1682  function isUserHasDept() public view returns (string memory){\r... */\n    tag_7:\n      tag_23\n      tag_24\n      jump\t// in\n    tag_23:\n      mload(0x40)\n      tag_25\n      swap2\n      swap1\n      tag_26\n      jump\t// in\n    tag_25:\n      mload(0x40)\n      dup1\n      swap2\n      sub\n      swap1\n      return\n        /* \"contracts/4_Try.sol\":2460:2549  function showEncrypt() public view returns (uint){\r... */\n    tag_8:\n      tag_27\n      tag_28\n      jump\t// in\n    tag_27:\n      mload(0x40)\n      tag_29\n      swap2\n      swap1\n      tag_14\n      jump\t// in\n    tag_29:\n      mload(0x40)\n      dup1\n      swap2\n      sub\n      swap1\n      return\n        /* \"contracts/4_Try.sol\":1358:1435  function getDept() public view returns(uint256){\r... */\n    tag_9:\n      tag_30\n      tag_31\n      jump\t// in\n    tag_30:\n      mload(0x40)\n      tag_32\n      swap2\n      swap1\n      tag_14\n      jump\t// in\n    tag_32:\n      mload(0x40)\n      dup1\n      swap2\n      sub\n      swap1\n      return\n        /* \"contracts/4_Try.sol\":1747:1906  function showDayDiff() public view returns (uint){\r... */\n    tag_12:\n        /* \"contracts/4_Try.sol\":1791:1795  uint */\n      0x00\n        /* \"contracts/4_Try.sol\":1828:1832  true */\n      0x01\n        /* \"contracts/4_Try.sol\":1810:1832  isThereAnyDept == true */\n      iszero\n      iszero\n        /* \"contracts/4_Try.sol\":1810:1824  isThereAnyDept */\n      0x00\n      dup1\n      sload\n      swap1\n      0x0100\n      exp\n      swap1\n      div\n      0xff\n      and\n        /* \"contracts/4_Try.sol\":1810:1832  isThereAnyDept == true */\n      iszero\n      iszero\n      eq\n        /* \"contracts/4_Try.sol\":1807:1898  if(isThereAnyDept == true)\r... */\n      iszero\n      tag_34\n      jumpi\n        /* \"contracts/4_Try.sol\":1854:1861  dayDiff */\n      sload(0x04)\n        /* \"contracts/4_Try.sol\":1847:1861  return dayDiff */\n      swap1\n      pop\n      jump(tag_33)\n        /* \"contracts/4_Try.sol\":1807:1898  if(isThereAnyDept == true)\r... */\n    tag_34:\n        /* \"contracts/4_Try.sol\":1897:1898  0 */\n      0x00\n        /* \"contracts/4_Try.sol\":1890:1898  return 0 */\n      swap1\n      pop\n        /* \"contracts/4_Try.sol\":1747:1906  function showDayDiff() public view returns (uint){\r... */\n    tag_33:\n      swap1\n      jump\t// out\n        /* \"contracts/4_Try.sol\":911:1312  function compareDates() public{\r... */\n    tag_16:\n        /* \"contracts/4_Try.sol\":965:974  startDate */\n      sload(0x06)\n        /* \"contracts/4_Try.sol\":955:962  endDate */\n      sload(0x07)\n        /* \"contracts/4_Try.sol\":955:974  endDate > startDate */\n      gt\n        /* \"contracts/4_Try.sol\":952:1305  if(endDate > startDate){ // borc yok\r... */\n      iszero\n      tag_37\n      jumpi\n        /* \"contracts/4_Try.sol\":1043:1045  24 */\n      0x18\n        /* \"contracts/4_Try.sol\":1036:1040  3600 */\n      0x0e10\n        /* \"contracts/4_Try.sol\":1023:1032  startDate */\n      sload(0x06)\n        /* \"contracts/4_Try.sol\":1013:1020  endDate */\n      sload(0x07)\n        /* \"contracts/4_Try.sol\":1013:1032  endDate - startDate */\n      tag_38\n      swap2\n      swap1\n      tag_39\n      jump\t// in\n    tag_38:\n        /* \"contracts/4_Try.sol\":1012:1040  (endDate - startDate) / 3600 */\n      tag_40\n      swap2\n      swap1\n      tag_41\n      jump\t// in\n    tag_40:\n        /* \"contracts/4_Try.sol\":1012:1045  (endDate - startDate) / 3600 / 24 */\n      tag_42\n      swap2\n      swap1\n      tag_41\n      jump\t// in\n    tag_42:\n        /* \"contracts/4_Try.sol\":1002:1009  dayDiff */\n      0x04\n        /* \"contracts/4_Try.sol\":1002:1045  dayDiff = (endDate - startDate) / 3600 / 24 */\n      dup2\n      swap1\n      sstore\n      pop\n        /* \"contracts/4_Try.sol\":952:1305  if(endDate > startDate){ // borc yok\r... */\n      jump(tag_43)\n    tag_37:\n        /* \"contracts/4_Try.sol\":1139:1141  24 */\n      0x18\n        /* \"contracts/4_Try.sol\":1132:1136  3600 */\n      0x0e10\n        /* \"contracts/4_Try.sol\":1121:1128  endDate */\n      sload(0x07)\n        /* \"contracts/4_Try.sol\":1109:1118  startDate */\n      sload(0x06)\n        /* \"contracts/4_Try.sol\":1109:1128  startDate - endDate */\n      tag_44\n      swap2\n      swap1\n      tag_39\n      jump\t// in\n    tag_44:\n        /* \"contracts/4_Try.sol\":1108:1136  (startDate - endDate) / 3600 */\n      tag_45\n      swap2\n      swap1\n      tag_41\n      jump\t// in\n    tag_45:\n        /* \"contracts/4_Try.sol\":1108:1141  (startDate - endDate) / 3600 / 24 */\n      tag_46\n      swap2\n      swap1\n      tag_41\n      jump\t// in\n    tag_46:\n        /* \"contracts/4_Try.sol\":1098:1105  dayDiff */\n      0x04\n        /* \"contracts/4_Try.sol\":1098:1141  dayDiff = (startDate - endDate) / 3600 / 24 */\n      dup2\n      swap1\n      sstore\n      pop\n        /* \"contracts/4_Try.sol\":1173:1177  true */\n      0x01\n        /* \"contracts/4_Try.sol\":1156:1170  isThereAnyDept */\n      0x00\n      dup1\n        /* \"contracts/4_Try.sol\":1156:1177  isThereAnyDept = true */\n      0x0100\n      exp\n      dup2\n      sload\n      dup2\n      0xff\n      mul\n      not\n      and\n      swap1\n      dup4\n      iszero\n      iszero\n      mul\n      or\n      swap1\n      sstore\n      pop\n        /* \"contracts/4_Try.sol\":1196:1202  uint i */\n      0x00\n        /* \"contracts/4_Try.sol\":1203:1204  1 */\n      0x01\n        /* \"contracts/4_Try.sol\":1196:1204  uint i=1 */\n      swap1\n      pop\n        /* \"contracts/4_Try.sol\":1192:1294  for(uint i=1; i<=dayDiff; i++){\r... */\n    tag_47:\n        /* \"contracts/4_Try.sol\":1209:1216  dayDiff */\n      sload(0x04)\n        /* \"contracts/4_Try.sol\":1206:1207  i */\n      dup2\n        /* \"contracts/4_Try.sol\":1206:1216  i<=dayDiff */\n      gt\n        /* \"contracts/4_Try.sol\":1192:1294  for(uint i=1; i<=dayDiff; i++){\r... */\n      tag_48\n      jumpi\n        /* \"contracts/4_Try.sol\":1275:1278  100 */\n      0x64\n        /* \"contracts/4_Try.sol\":1263:1271  interest */\n      sload(0x05)\n        /* \"contracts/4_Try.sol\":1256:1260  dept */\n      sload(0x01)\n        /* \"contracts/4_Try.sol\":1256:1271  dept * interest */\n      tag_50\n      swap2\n      swap1\n      tag_51\n      jump\t// in\n    tag_50:\n        /* \"contracts/4_Try.sol\":1255:1278  (dept * interest) / 100 */\n      tag_52\n      swap2\n      swap1\n      tag_41\n      jump\t// in\n    tag_52:\n        /* \"contracts/4_Try.sol\":1248:1252  dept */\n      sload(0x01)\n        /* \"contracts/4_Try.sol\":1248:1278  dept + (dept * interest) / 100 */\n      tag_53\n      swap2\n      swap1\n      tag_54\n      jump\t// in\n    tag_53:\n        /* \"contracts/4_Try.sol\":1241:1245  dept */\n      0x01\n        /* \"contracts/4_Try.sol\":1241:1278  dept = dept + (dept * interest) / 100 */\n      dup2\n      swap1\n      sstore\n      pop\n        /* \"contracts/4_Try.sol\":1218:1221  i++ */\n      dup1\n      dup1\n      tag_55\n      swap1\n      tag_56\n      jump\t// in\n    tag_55:\n      swap2\n      pop\n      pop\n        /* \"contracts/4_Try.sol\":1192:1294  for(uint i=1; i<=dayDiff; i++){\r... */\n      jump(tag_47)\n    tag_48:\n      pop\n        /* \"contracts/4_Try.sol\":952:1305  if(endDate > startDate){ // borc yok\r... */\n    tag_43:\n        /* \"contracts/4_Try.sol\":911:1312  function compareDates() public{\r... */\n      jump\t// out\n        /* \"contracts/4_Try.sol\":722:797  function enterYourDept(uint256 _dept) public{\r... */\n    tag_20:\n        /* \"contracts/4_Try.sol\":784:789  _dept */\n      dup1\n        /* \"contracts/4_Try.sol\":777:781  dept */\n      0x01\n        /* \"contracts/4_Try.sol\":777:789  dept = _dept */\n      dup2\n      swap1\n      sstore\n      pop\n        /* \"contracts/4_Try.sol\":722:797  function enterYourDept(uint256 _dept) public{\r... */\n      pop\n      jump\t// out\n        /* \"contracts/4_Try.sol\":1979:2417  function encrypt() public{\r... */\n    tag_22:\n        /* \"contracts/4_Try.sol\":2015:2024  uint temp */\n      0x00\n        /* \"contracts/4_Try.sol\":2027:2031  dept */\n      sload(0x01)\n        /* \"contracts/4_Try.sol\":2015:2031  uint temp = dept */\n      swap1\n      pop\n        /* \"contracts/4_Try.sol\":2042:2052  uint digit */\n      0x00\n        /* \"contracts/4_Try.sol\":2063:2080  uint tempPassword */\n      dup1\n        /* \"contracts/4_Try.sol\":2083:2084  0 */\n      0x00\n        /* \"contracts/4_Try.sol\":2063:2084  uint tempPassword = 0 */\n      swap1\n      pop\n        /* \"contracts/4_Try.sol\":2097:2275  while(temp > 10){\r... */\n    tag_59:\n        /* \"contracts/4_Try.sol\":2110:2112  10 */\n      0x0a\n        /* \"contracts/4_Try.sol\":2103:2107  temp */\n      dup4\n        /* \"contracts/4_Try.sol\":2103:2112  temp > 10 */\n      gt\n        /* \"contracts/4_Try.sol\":2097:2275  while(temp > 10){\r... */\n      iszero\n      tag_60\n      jumpi\n        /* \"contracts/4_Try.sol\":2143:2145  10 */\n      0x0a\n        /* \"contracts/4_Try.sol\":2136:2140  temp */\n      dup4\n        /* \"contracts/4_Try.sol\":2136:2145  temp % 10 */\n      tag_61\n      swap2\n      swap1\n      tag_62\n      jump\t// in\n    tag_61:\n        /* \"contracts/4_Try.sol\":2128:2145  digit = temp % 10 */\n      swap2\n      pop\n        /* \"contracts/4_Try.sol\":2174:2176  10 */\n      0x0a\n        /* \"contracts/4_Try.sol\":2167:2171  temp */\n      dup4\n        /* \"contracts/4_Try.sol\":2167:2176  temp / 10 */\n      tag_63\n      swap2\n      swap1\n      tag_41\n      jump\t// in\n    tag_63:\n        /* \"contracts/4_Try.sol\":2160:2176  temp = temp / 10 */\n      swap3\n      pop\n        /* \"contracts/4_Try.sol\":2221:2232  digitOfDept */\n      sload(0x03)\n        /* \"contracts/4_Try.sol\":2218:2219  2 */\n      0x02\n        /* \"contracts/4_Try.sol\":2218:2232  2**digitOfDept */\n      tag_64\n      swap2\n      swap1\n      tag_65\n      jump\t// in\n    tag_64:\n        /* \"contracts/4_Try.sol\":2209:2214  digit */\n      dup3\n        /* \"contracts/4_Try.sol\":2209:2233  digit * (2**digitOfDept) */\n      tag_66\n      swap2\n      swap1\n      tag_51\n      jump\t// in\n    tag_66:\n        /* \"contracts/4_Try.sol\":2193:2233  tempPassword += digit * (2**digitOfDept) */\n      dup2\n      tag_67\n      swap2\n      swap1\n      tag_54\n      jump\t// in\n    tag_67:\n      swap1\n      pop\n        /* \"contracts/4_Try.sol\":2248:2259  digitOfDept */\n      0x03\n      0x00\n        /* \"contracts/4_Try.sol\":2248:2261  digitOfDept++ */\n      dup2\n      sload\n      dup1\n      swap3\n      swap2\n      swap1\n      tag_68\n      swap1\n      tag_56\n      jump\t// in\n    tag_68:\n      swap2\n      swap1\n      pop\n      sstore\n      pop\n        /* \"contracts/4_Try.sol\":2097:2275  while(temp > 10){\r... */\n      jump(tag_59)\n    tag_60:\n        /* \"contracts/4_Try.sol\":2300:2302  10 */\n      0x0a\n        /* \"contracts/4_Try.sol\":2293:2297  temp */\n      dup4\n        /* \"contracts/4_Try.sol\":2293:2302  temp % 10 */\n      tag_69\n      swap2\n      swap1\n      tag_62\n      jump\t// in\n    tag_69:\n        /* \"contracts/4_Try.sol\":2285:2302  digit = temp % 10 */\n      swap2\n      pop\n        /* \"contracts/4_Try.sol\":2355:2366  digitOfDept */\n      sload(0x03)\n        /* \"contracts/4_Try.sol\":2352:2353  2 */\n      0x02\n        /* \"contracts/4_Try.sol\":2352:2366  2**digitOfDept */\n      tag_70\n      swap2\n      swap1\n      tag_65\n      jump\t// in\n    tag_70:\n        /* \"contracts/4_Try.sol\":2343:2348  digit */\n      dup3\n        /* \"contracts/4_Try.sol\":2343:2367  digit * (2**digitOfDept) */\n      tag_71\n      swap2\n      swap1\n      tag_51\n      jump\t// in\n    tag_71:\n        /* \"contracts/4_Try.sol\":2328:2340  tempPassword */\n      dup2\n        /* \"contracts/4_Try.sol\":2328:2367  tempPassword + digit * (2**digitOfDept) */\n      tag_72\n      swap2\n      swap1\n      tag_54\n      jump\t// in\n    tag_72:\n        /* \"contracts/4_Try.sol\":2313:2367  tempPassword = tempPassword + digit * (2**digitOfDept) */\n      swap1\n      pop\n        /* \"contracts/4_Try.sol\":2397:2409  tempPassword */\n      dup1\n        /* \"contracts/4_Try.sol\":2380:2394  passwordOfDept */\n      0x02\n        /* \"contracts/4_Try.sol\":2380:2409  passwordOfDept = tempPassword */\n      dup2\n      swap1\n      sstore\n      pop\n        /* \"contracts/4_Try.sol\":2004:2417  {\r... */\n      pop\n      pop\n      pop\n        /* \"contracts/4_Try.sol\":1979:2417  function encrypt() public{\r... */\n      jump\t// out\n        /* \"contracts/4_Try.sol\":1496:1682  function isUserHasDept() public view returns (string memory){\r... */\n    tag_24:\n        /* \"contracts/4_Try.sol\":1542:1555  string memory */\n      0x60\n        /* \"contracts/4_Try.sol\":1588:1592  true */\n      0x01\n        /* \"contracts/4_Try.sol\":1570:1592  isThereAnyDept == true */\n      iszero\n      iszero\n        /* \"contracts/4_Try.sol\":1570:1584  isThereAnyDept */\n      0x00\n      dup1\n      sload\n      swap1\n      0x0100\n      exp\n      swap1\n      div\n      0xff\n      and\n        /* \"contracts/4_Try.sol\":1570:1592  isThereAnyDept == true */\n      iszero\n      iszero\n      eq\n        /* \"contracts/4_Try.sol\":1567:1674  if(isThereAnyDept == true)\r... */\n      iszero\n      tag_74\n      jumpi\n        /* \"contracts/4_Try.sol\":1607:1622  return \"Borclu\" */\n      mload(0x40)\n      dup1\n      0x40\n      add\n      0x40\n      mstore\n      dup1\n      0x06\n      dup2\n      mstore\n      0x20\n      add\n      0x426f72636c750000000000000000000000000000000000000000000000000000\n      dup2\n      mstore\n      pop\n      swap1\n      pop\n      jump(tag_73)\n        /* \"contracts/4_Try.sol\":1567:1674  if(isThereAnyDept == true)\r... */\n    tag_74:\n        /* \"contracts/4_Try.sol\":1651:1674  return \"Faiz Borcu yok\" */\n      mload(0x40)\n      dup1\n      0x40\n      add\n      0x40\n      mstore\n      dup1\n      0x0e\n      dup2\n      mstore\n      0x20\n      add\n      0x4661697a20426f72637520796f6b000000000000000000000000000000000000\n      dup2\n      mstore\n      pop\n      swap1\n      pop\n        /* \"contracts/4_Try.sol\":1496:1682  function isUserHasDept() public view returns (string memory){\r... */\n    tag_73:\n      swap1\n      jump\t// out\n        /* \"contracts/4_Try.sol\":2460:2549  function showEncrypt() public view returns (uint){\r... */\n    tag_28:\n        /* \"contracts/4_Try.sol\":2504:2508  uint */\n      0x00\n        /* \"contracts/4_Try.sol\":2527:2541  passwordOfDept */\n      sload(0x02)\n        /* \"contracts/4_Try.sol\":2520:2541  return passwordOfDept */\n      swap1\n      pop\n        /* \"contracts/4_Try.sol\":2460:2549  function showEncrypt() public view returns (uint){\r... */\n      swap1\n      jump\t// out\n        /* \"contracts/4_Try.sol\":1358:1435  function getDept() public view returns(uint256){\r... */\n    tag_31:\n        /* \"contracts/4_Try.sol\":1397:1404  uint256 */\n      0x00\n        /* \"contracts/4_Try.sol\":1423:1427  dept */\n      sload(0x01)\n        /* \"contracts/4_Try.sol\":1416:1427  return dept */\n      swap1\n      pop\n        /* \"contracts/4_Try.sol\":1358:1435  function getDept() public view returns(uint256){\r... */\n      swap1\n      jump\t// out\n        /* \"#utility.yul\":7:146   */\n    tag_79:\n        /* \"#utility.yul\":53:58   */\n      0x00\n        /* \"#utility.yul\":91:97   */\n      dup2\n        /* \"#utility.yul\":78:98   */\n      calldataload\n        /* \"#utility.yul\":69:98   */\n      swap1\n      pop\n        /* \"#utility.yul\":107:140   */\n      tag_81\n        /* \"#utility.yul\":134:139   */\n      dup2\n        /* \"#utility.yul\":107:140   */\n      tag_82\n      jump\t// in\n    tag_81:\n        /* \"#utility.yul\":7:146   */\n      swap3\n      swap2\n      pop\n      pop\n      jump\t// out\n        /* \"#utility.yul\":152:481   */\n    tag_19:\n        /* \"#utility.yul\":211:217   */\n      0x00\n        /* \"#utility.yul\":260:262   */\n      0x20\n        /* \"#utility.yul\":248:257   */\n      dup3\n        /* \"#utility.yul\":239:246   */\n      dup5\n        /* \"#utility.yul\":235:258   */\n      sub\n        /* \"#utility.yul\":231:263   */\n      slt\n        /* \"#utility.yul\":228:347   */\n      iszero\n      tag_84\n      jumpi\n        /* \"#utility.yul\":266:345   */\n      tag_85\n      tag_86\n      jump\t// in\n    tag_85:\n        /* \"#utility.yul\":228:347   */\n    tag_84:\n        /* \"#utility.yul\":386:387   */\n      0x00\n        /* \"#utility.yul\":411:464   */\n      tag_87\n        /* \"#utility.yul\":456:463   */\n      dup5\n        /* \"#utility.yul\":447:453   */\n      dup3\n        /* \"#utility.yul\":436:445   */\n      dup6\n        /* \"#utility.yul\":432:454   */\n      add\n        /* \"#utility.yul\":411:464   */\n      tag_79\n      jump\t// in\n    tag_87:\n        /* \"#utility.yul\":401:464   */\n      swap2\n      pop\n        /* \"#utility.yul\":357:474   */\n      pop\n        /* \"#utility.yul\":152:481   */\n      swap3\n      swap2\n      pop\n      pop\n      jump\t// out\n        /* \"#utility.yul\":487:851   */\n    tag_88:\n        /* \"#utility.yul\":575:578   */\n      0x00\n        /* \"#utility.yul\":603:642   */\n      tag_90\n        /* \"#utility.yul\":636:641   */\n      dup3\n        /* \"#utility.yul\":603:642   */\n      tag_91\n      jump\t// in\n    tag_90:\n        /* \"#utility.yul\":658:729   */\n      tag_92\n        /* \"#utility.yul\":722:728   */\n      dup2\n        /* \"#utility.yul\":717:720   */\n      dup6\n        /* \"#utility.yul\":658:729   */\n      tag_93\n      jump\t// in\n    tag_92:\n        /* \"#utility.yul\":651:729   */\n      swap4\n      pop\n        /* \"#utility.yul\":738:790   */\n      tag_94\n        /* \"#utility.yul\":783:789   */\n      dup2\n        /* \"#utility.yul\":778:781   */\n      dup6\n        /* \"#utility.yul\":771:775   */\n      0x20\n        /* \"#utility.yul\":764:769   */\n      dup7\n        /* \"#utility.yul\":760:776   */\n      add\n        /* \"#utility.yul\":738:790   */\n      tag_95\n      jump\t// in\n    tag_94:\n        /* \"#utility.yul\":815:844   */\n      tag_96\n        /* \"#utility.yul\":837:843   */\n      dup2\n        /* \"#utility.yul\":815:844   */\n      tag_97\n      jump\t// in\n    tag_96:\n        /* \"#utility.yul\":810:813   */\n      dup5\n        /* \"#utility.yul\":806:845   */\n      add\n        /* \"#utility.yul\":799:845   */\n      swap2\n      pop\n        /* \"#utility.yul\":579:851   */\n      pop\n        /* \"#utility.yul\":487:851   */\n      swap3\n      swap2\n      pop\n      pop\n      jump\t// out\n        /* \"#utility.yul\":857:975   */\n    tag_98:\n        /* \"#utility.yul\":944:968   */\n      tag_100\n        /* \"#utility.yul\":962:967   */\n      dup2\n        /* \"#utility.yul\":944:968   */\n      tag_101\n      jump\t// in\n    tag_100:\n        /* \"#utility.yul\":939:942   */\n      dup3\n        /* \"#utility.yul\":932:969   */\n      mstore\n        /* \"#utility.yul\":857:975   */\n      pop\n      pop\n      jump\t// out\n        /* \"#utility.yul\":981:1294   */\n    tag_26:\n        /* \"#utility.yul\":1094:1098   */\n      0x00\n        /* \"#utility.yul\":1132:1134   */\n      0x20\n        /* \"#utility.yul\":1121:1130   */\n      dup3\n        /* \"#utility.yul\":1117:1135   */\n      add\n        /* \"#utility.yul\":1109:1135   */\n      swap1\n      pop\n        /* \"#utility.yul\":1181:1190   */\n      dup2\n        /* \"#utility.yul\":1175:1179   */\n      dup2\n        /* \"#utility.yul\":1171:1191   */\n      sub\n        /* \"#utility.yul\":1167:1168   */\n      0x00\n        /* \"#utility.yul\":1156:1165   */\n      dup4\n        /* \"#utility.yul\":1152:1169   */\n      add\n        /* \"#utility.yul\":1145:1192   */\n      mstore\n        /* \"#utility.yul\":1209:1287   */\n      tag_103\n        /* \"#utility.yul\":1282:1286   */\n      dup2\n        /* \"#utility.yul\":1273:1279   */\n      dup5\n        /* \"#utility.yul\":1209:1287   */\n      tag_88\n      jump\t// in\n    tag_103:\n        /* \"#utility.yul\":1201:1287   */\n      swap1\n      pop\n        /* \"#utility.yul\":981:1294   */\n      swap3\n      swap2\n      pop\n      pop\n      jump\t// out\n        /* \"#utility.yul\":1300:1522   */\n    tag_14:\n        /* \"#utility.yul\":1393:1397   */\n      0x00\n        /* \"#utility.yul\":1431:1433   */\n      0x20\n        /* \"#utility.yul\":1420:1429   */\n      dup3\n        /* \"#utility.yul\":1416:1434   */\n      add\n        /* \"#utility.yul\":1408:1434   */\n      swap1\n      pop\n        /* \"#utility.yul\":1444:1515   */\n      tag_105\n        /* \"#utility.yul\":1512:1513   */\n      0x00\n        /* \"#utility.yul\":1501:1510   */\n      dup4\n        /* \"#utility.yul\":1497:1514   */\n      add\n        /* \"#utility.yul\":1488:1494   */\n      dup5\n        /* \"#utility.yul\":1444:1515   */\n      tag_98\n      jump\t// in\n    tag_105:\n        /* \"#utility.yul\":1300:1522   */\n      swap3\n      swap2\n      pop\n      pop\n      jump\t// out\n        /* \"#utility.yul\":1609:1708   */\n    tag_91:\n        /* \"#utility.yul\":1661:1667   */\n      0x00\n        /* \"#utility.yul\":1695:1700   */\n      dup2\n        /* \"#utility.yul\":1689:1701   */\n      mload\n        /* \"#utility.yul\":1679:1701   */\n      swap1\n      pop\n        /* \"#utility.yul\":1609:1708   */\n      swap2\n      swap1\n      pop\n      jump\t// out\n        /* \"#utility.yul\":1714:1883   */\n    tag_93:\n        /* \"#utility.yul\":1798:1809   */\n      0x00\n        /* \"#utility.yul\":1832:1838   */\n      dup3\n        /* \"#utility.yul\":1827:1830   */\n      dup3\n        /* \"#utility.yul\":1820:1839   */\n      mstore\n        /* \"#utility.yul\":1872:1876   */\n      0x20\n        /* \"#utility.yul\":1867:1870   */\n      dup3\n        /* \"#utility.yul\":1863:1877   */\n      add\n        /* \"#utility.yul\":1848:1877   */\n      swap1\n      pop\n        /* \"#utility.yul\":1714:1883   */\n      swap3\n      swap2\n      pop\n      pop\n      jump\t// out\n        /* \"#utility.yul\":1889:2194   */\n    tag_54:\n        /* \"#utility.yul\":1929:1932   */\n      0x00\n        /* \"#utility.yul\":1948:1968   */\n      tag_111\n        /* \"#utility.yul\":1966:1967   */\n      dup3\n        /* \"#utility.yul\":1948:1968   */\n      tag_101\n      jump\t// in\n    tag_111:\n        /* \"#utility.yul\":1943:1968   */\n      swap2\n      pop\n        /* \"#utility.yul\":1982:2002   */\n      tag_112\n        /* \"#utility.yul\":2000:2001   */\n      dup4\n        /* \"#utility.yul\":1982:2002   */\n      tag_101\n      jump\t// in\n    tag_112:\n        /* \"#utility.yul\":1977:2002   */\n      swap3\n      pop\n        /* \"#utility.yul\":2136:2137   */\n      dup3\n        /* \"#utility.yul\":2068:2134   */\n      0xffffffffffffffffffffffffffffffffffffffffffffffffffffffffffffffff\n        /* \"#utility.yul\":2064:2138   */\n      sub\n        /* \"#utility.yul\":2061:2062   */\n      dup3\n        /* \"#utility.yul\":2058:2139   */\n      gt\n        /* \"#utility.yul\":2055:2162   */\n      iszero\n      tag_113\n      jumpi\n        /* \"#utility.yul\":2142:2160   */\n      tag_114\n      tag_115\n      jump\t// in\n    tag_114:\n        /* \"#utility.yul\":2055:2162   */\n    tag_113:\n        /* \"#utility.yul\":2186:2187   */\n      dup3\n        /* \"#utility.yul\":2183:2184   */\n      dup3\n        /* \"#utility.yul\":2179:2188   */\n      add\n        /* \"#utility.yul\":2172:2188   */\n      swap1\n      pop\n        /* \"#utility.yul\":1889:2194   */\n      swap3\n      swap2\n      pop\n      pop\n      jump\t// out\n        /* \"#utility.yul\":2200:2385   */\n    tag_41:\n        /* \"#utility.yul\":2240:2241   */\n      0x00\n        /* \"#utility.yul\":2257:2277   */\n      tag_117\n        /* \"#utility.yul\":2275:2276   */\n      dup3\n        /* \"#utility.yul\":2257:2277   */\n      tag_101\n      jump\t// in\n    tag_117:\n        /* \"#utility.yul\":2252:2277   */\n      swap2\n      pop\n        /* \"#utility.yul\":2291:2311   */\n      tag_118\n        /* \"#utility.yul\":2309:2310   */\n      dup4\n        /* \"#utility.yul\":2291:2311   */\n      tag_101\n      jump\t// in\n    tag_118:\n        /* \"#utility.yul\":2286:2311   */\n      swap3\n      pop\n        /* \"#utility.yul\":2330:2331   */\n      dup3\n        /* \"#utility.yul\":2320:2355   */\n      tag_119\n      jumpi\n        /* \"#utility.yul\":2335:2353   */\n      tag_120\n      tag_121\n      jump\t// in\n    tag_120:\n        /* \"#utility.yul\":2320:2355   */\n    tag_119:\n        /* \"#utility.yul\":2377:2378   */\n      dup3\n        /* \"#utility.yul\":2374:2375   */\n      dup3\n        /* \"#utility.yul\":2370:2379   */\n      div\n        /* \"#utility.yul\":2365:2379   */\n      swap1\n      pop\n        /* \"#utility.yul\":2200:2385   */\n      swap3\n      swap2\n      pop\n      pop\n      jump\t// out\n        /* \"#utility.yul\":2391:3239   */\n    tag_122:\n        /* \"#utility.yul\":2452:2457   */\n      0x00\n        /* \"#utility.yul\":2459:2463   */\n      dup1\n        /* \"#utility.yul\":2483:2489   */\n      dup3\n        /* \"#utility.yul\":2474:2489   */\n      swap2\n      pop\n        /* \"#utility.yul\":2507:2512   */\n      dup4\n        /* \"#utility.yul\":2498:2512   */\n      swap1\n      pop\n        /* \"#utility.yul\":2521:3233   */\n    tag_124:\n        /* \"#utility.yul\":2542:2543   */\n      0x01\n        /* \"#utility.yul\":2532:2540   */\n      dup6\n        /* \"#utility.yul\":2529:2544   */\n      gt\n        /* \"#utility.yul\":2521:3233   */\n      iszero\n      tag_126\n      jumpi\n        /* \"#utility.yul\":2637:2641   */\n      dup1\n        /* \"#utility.yul\":2632:2635   */\n      dup7\n        /* \"#utility.yul\":2628:2642   */\n      div\n        /* \"#utility.yul\":2622:2626   */\n      dup2\n        /* \"#utility.yul\":2619:2643   */\n      gt\n        /* \"#utility.yul\":2616:2666   */\n      iszero\n      tag_127\n      jumpi\n        /* \"#utility.yul\":2646:2664   */\n      tag_128\n      tag_115\n      jump\t// in\n    tag_128:\n        /* \"#utility.yul\":2616:2666   */\n    tag_127:\n        /* \"#utility.yul\":2696:2697   */\n      0x01\n        /* \"#utility.yul\":2686:2694   */\n      dup6\n        /* \"#utility.yul\":2682:2698   */\n      and\n        /* \"#utility.yul\":2679:3130   */\n      iszero\n      tag_129\n      jumpi\n        /* \"#utility.yul\":3111:3115   */\n      dup1\n        /* \"#utility.yul\":3104:3109   */\n      dup3\n        /* \"#utility.yul\":3100:3116   */\n      mul\n        /* \"#utility.yul\":3091:3116   */\n      swap2\n      pop\n        /* \"#utility.yul\":2679:3130   */\n    tag_129:\n        /* \"#utility.yul\":3161:3165   */\n      dup1\n        /* \"#utility.yul\":3155:3159   */\n      dup2\n        /* \"#utility.yul\":3151:3166   */\n      mul\n        /* \"#utility.yul\":3143:3166   */\n      swap1\n      pop\n        /* \"#utility.yul\":3191:3223   */\n      tag_130\n        /* \"#utility.yul\":3214:3222   */\n      dup6\n        /* \"#utility.yul\":3191:3223   */\n      tag_131\n      jump\t// in\n    tag_130:\n        /* \"#utility.yul\":3179:3223   */\n      swap5\n      pop\n        /* \"#utility.yul\":2521:3233   */\n      jump(tag_124)\n    tag_126:\n        /* \"#utility.yul\":2391:3239   */\n      swap5\n      pop\n      swap5\n      swap3\n      pop\n      pop\n      pop\n      jump\t// out\n        /* \"#utility.yul\":3245:3530   */\n    tag_65:\n        /* \"#utility.yul\":3305:3310   */\n      0x00\n        /* \"#utility.yul\":3329:3352   */\n      tag_133\n        /* \"#utility.yul\":3347:3351   */\n      dup3\n        /* \"#utility.yul\":3329:3352   */\n      tag_101\n      jump\t// in\n    tag_133:\n        /* \"#utility.yul\":3321:3352   */\n      swap2\n      pop\n        /* \"#utility.yul\":3373:3400   */\n      tag_134\n        /* \"#utility.yul\":3391:3399   */\n      dup4\n        /* \"#utility.yul\":3373:3400   */\n      tag_101\n      jump\t// in\n    tag_134:\n        /* \"#utility.yul\":3361:3400   */\n      swap3\n      pop\n        /* \"#utility.yul\":3419:3523   */\n      tag_135\n        /* \"#utility.yul\":3456:3522   */\n      0xffffffffffffffffffffffffffffffffffffffffffffffffffffffffffffffff\n        /* \"#utility.yul\":3446:3454   */\n      dup5\n        /* \"#utility.yul\":3440:3444   */\n      dup5\n        /* \"#utility.yul\":3419:3523   */\n      tag_136\n      jump\t// in\n    tag_135:\n        /* \"#utility.yul\":3410:3523   */\n      swap1\n      pop\n        /* \"#utility.yul\":3245:3530   */\n      swap3\n      swap2\n      pop\n      pop\n      jump\t// out\n        /* \"#utility.yul\":3536:4609   */\n    tag_136:\n        /* \"#utility.yul\":3590:3595   */\n      0x00\n        /* \"#utility.yul\":3781:3789   */\n      dup3\n        /* \"#utility.yul\":3771:3811   */\n      tag_138\n      jumpi\n        /* \"#utility.yul\":3802:3803   */\n      0x01\n        /* \"#utility.yul\":3793:3803   */\n      swap1\n      pop\n        /* \"#utility.yul\":3804:3809   */\n      jump(tag_137)\n        /* \"#utility.yul\":3771:3811   */\n    tag_138:\n        /* \"#utility.yul\":3830:3834   */\n      dup2\n        /* \"#utility.yul\":3820:3856   */\n      tag_139\n      jumpi\n        /* \"#utility.yul\":3847:3848   */\n      0x00\n        /* \"#utility.yul\":3838:3848   */\n      swap1\n      pop\n        /* \"#utility.yul\":3849:3854   */\n      jump(tag_137)\n        /* \"#utility.yul\":3820:3856   */\n    tag_139:\n        /* \"#utility.yul\":3916:3920   */\n      dup2\n        /* \"#utility.yul\":3964:3965   */\n      0x01\n        /* \"#utility.yul\":3959:3986   */\n      dup2\n      eq\n      tag_141\n      jumpi\n        /* \"#utility.yul\":4000:4001   */\n      0x02\n        /* \"#utility.yul\":3995:4186   */\n      dup2\n      eq\n      tag_142\n      jumpi\n        /* \"#utility.yul\":3909:4186   */\n      jump(tag_140)\n        /* \"#utility.yul\":3959:3986   */\n    tag_141:\n        /* \"#utility.yul\":3977:3978   */\n      0x01\n        /* \"#utility.yul\":3968:3978   */\n      swap2\n      pop\n        /* \"#utility.yul\":3979:3984   */\n      pop\n      jump(tag_137)\n        /* \"#utility.yul\":3995:4186   */\n    tag_142:\n        /* \"#utility.yul\":4040:4043   */\n      0xff\n        /* \"#utility.yul\":4030:4038   */\n      dup5\n        /* \"#utility.yul\":4027:4044   */\n      gt\n        /* \"#utility.yul\":4024:4067   */\n      iszero\n      tag_143\n      jumpi\n        /* \"#utility.yul\":4047:4065   */\n      tag_144\n      tag_115\n      jump\t// in\n    tag_144:\n        /* \"#utility.yul\":4024:4067   */\n    tag_143:\n        /* \"#utility.yul\":4096:4104   */\n      dup4\n        /* \"#utility.yul\":4093:4094   */\n      0x02\n        /* \"#utility.yul\":4089:4105   */\n      exp\n        /* \"#utility.yul\":4080:4105   */\n      swap2\n      pop\n        /* \"#utility.yul\":4131:4134   */\n      dup5\n        /* \"#utility.yul\":4124:4129   */\n      dup3\n        /* \"#utility.yul\":4121:4135   */\n      gt\n        /* \"#utility.yul\":4118:4158   */\n      iszero\n      tag_145\n      jumpi\n        /* \"#utility.yul\":4138:4156   */\n      tag_146\n      tag_115\n      jump\t// in\n    tag_146:\n        /* \"#utility.yul\":4118:4158   */\n    tag_145:\n        /* \"#utility.yul\":4171:4176   */\n      pop\n      jump(tag_137)\n        /* \"#utility.yul\":3909:4186   */\n    tag_140:\n      pop\n        /* \"#utility.yul\":4295:4297   */\n      0x20\n        /* \"#utility.yul\":4285:4293   */\n      dup4\n        /* \"#utility.yul\":4282:4298   */\n      lt\n        /* \"#utility.yul\":4276:4279   */\n      0x0133\n        /* \"#utility.yul\":4270:4274   */\n      dup4\n        /* \"#utility.yul\":4267:4280   */\n      lt\n        /* \"#utility.yul\":4263:4299   */\n      and\n        /* \"#utility.yul\":4245:4247   */\n      0x4e\n        /* \"#utility.yul\":4235:4243   */\n      dup5\n        /* \"#utility.yul\":4232:4248   */\n      lt\n        /* \"#utility.yul\":4227:4229   */\n      0x0b\n        /* \"#utility.yul\":4221:4225   */\n      dup5\n        /* \"#utility.yul\":4218:4230   */\n      lt\n        /* \"#utility.yul\":4214:4249   */\n      and\n        /* \"#utility.yul\":4198:4309   */\n      or\n        /* \"#utility.yul\":4195:4441   */\n      iszero\n      tag_147\n      jumpi\n        /* \"#utility.yul\":4351:4359   */\n      dup3\n        /* \"#utility.yul\":4345:4349   */\n      dup3\n        /* \"#utility.yul\":4341:4360   */\n      exp\n        /* \"#utility.yul\":4332:4360   */\n      swap1\n      pop\n        /* \"#utility.yul\":4386:4389   */\n      dup4\n        /* \"#utility.yul\":4379:4384   */\n      dup2\n        /* \"#utility.yul\":4376:4390   */\n      gt\n        /* \"#utility.yul\":4373:4413   */\n      iszero\n      tag_148\n      jumpi\n        /* \"#utility.yul\":4393:4411   */\n      tag_149\n      tag_115\n      jump\t// in\n    tag_149:\n        /* \"#utility.yul\":4373:4413   */\n    tag_148:\n        /* \"#utility.yul\":4426:4431   */\n      jump(tag_137)\n        /* \"#utility.yul\":4195:4441   */\n    tag_147:\n        /* \"#utility.yul\":4466:4508   */\n      tag_150\n        /* \"#utility.yul\":4504:4507   */\n      dup5\n        /* \"#utility.yul\":4494:4502   */\n      dup5\n        /* \"#utility.yul\":4488:4492   */\n      dup5\n        /* \"#utility.yul\":4485:4486   */\n      0x01\n        /* \"#utility.yul\":4466:4508   */\n      tag_122\n      jump\t// in\n    tag_150:\n        /* \"#utility.yul\":4451:4508   */\n      swap3\n      pop\n      swap1\n      pop\n        /* \"#utility.yul\":4540:4544   */\n      dup2\n        /* \"#utility.yul\":4535:4538   */\n      dup5\n        /* \"#utility.yul\":4531:4545   */\n      div\n        /* \"#utility.yul\":4524:4529   */\n      dup2\n        /* \"#utility.yul\":4521:4546   */\n      gt\n        /* \"#utility.yul\":4518:4569   */\n      iszero\n      tag_151\n      jumpi\n        /* \"#utility.yul\":4549:4567   */\n      tag_152\n      tag_115\n      jump\t// in\n    tag_152:\n        /* \"#utility.yul\":4518:4569   */\n    tag_151:\n        /* \"#utility.yul\":4598:4602   */\n      dup2\n        /* \"#utility.yul\":4591:4596   */\n      dup2\n        /* \"#utility.yul\":4587:4603   */\n      mul\n        /* \"#utility.yul\":4578:4603   */\n      swap1\n      pop\n        /* \"#utility.yul\":3536:4609   */\n    tag_137:\n      swap4\n      swap3\n      pop\n      pop\n      pop\n      jump\t// out\n        /* \"#utility.yul\":4615:4963   */\n    tag_51:\n        /* \"#utility.yul\":4655:4662   */\n      0x00\n        /* \"#utility.yul\":4678:4698   */\n      tag_154\n        /* \"#utility.yul\":4696:4697   */\n      dup3\n        /* \"#utility.yul\":4678:4698   */\n      tag_101\n      jump\t// in\n    tag_154:\n        /* \"#utility.yul\":4673:4698   */\n      swap2\n      pop\n        /* \"#utility.yul\":4712:4732   */\n      tag_155\n        /* \"#utility.yul\":4730:4731   */\n      dup4\n        /* \"#utility.yul\":4712:4732   */\n      tag_101\n      jump\t// in\n    tag_155:\n        /* \"#utility.yul\":4707:4732   */\n      swap3\n      pop\n        /* \"#utility.yul\":4900:4901   */\n      dup2\n        /* \"#utility.yul\":4832:4898   */\n      0xffffffffffffffffffffffffffffffffffffffffffffffffffffffffffffffff\n        /* \"#utility.yul\":4828:4902   */\n      div\n        /* \"#utility.yul\":4825:4826   */\n      dup4\n        /* \"#utility.yul\":4822:4903   */\n      gt\n        /* \"#utility.yul\":4817:4818   */\n      dup3\n        /* \"#utility.yul\":4810:4819   */\n      iszero\n        /* \"#utility.yul\":4803:4820   */\n      iszero\n        /* \"#utility.yul\":4799:4904   */\n      and\n        /* \"#utility.yul\":4796:4927   */\n      iszero\n      tag_156\n      jumpi\n        /* \"#utility.yul\":4907:4925   */\n      tag_157\n      tag_115\n      jump\t// in\n    tag_157:\n        /* \"#utility.yul\":4796:4927   */\n    tag_156:\n        /* \"#utility.yul\":4955:4956   */\n      dup3\n        /* \"#utility.yul\":4952:4953   */\n      dup3\n        /* \"#utility.yul\":4948:4957   */\n      mul\n        /* \"#utility.yul\":4937:4957   */\n      swap1\n      pop\n        /* \"#utility.yul\":4615:4963   */\n      swap3\n      swap2\n      pop\n      pop\n      jump\t// out\n        /* \"#utility.yul\":4969:5160   */\n    tag_39:\n        /* \"#utility.yul\":5009:5013   */\n      0x00\n        /* \"#utility.yul\":5029:5049   */\n      tag_159\n        /* \"#utility.yul\":5047:5048   */\n      dup3\n        /* \"#utility.yul\":5029:5049   */\n      tag_101\n      jump\t// in\n    tag_159:\n        /* \"#utility.yul\":5024:5049   */\n      swap2\n      pop\n        /* \"#utility.yul\":5063:5083   */\n      tag_160\n        /* \"#utility.yul\":5081:5082   */\n      dup4\n        /* \"#utility.yul\":5063:5083   */\n      tag_101\n      jump\t// in\n    tag_160:\n        /* \"#utility.yul\":5058:5083   */\n      swap3\n      pop\n        /* \"#utility.yul\":5102:5103   */\n      dup3\n        /* \"#utility.yul\":5099:5100   */\n      dup3\n        /* \"#utility.yul\":5096:5104   */\n      lt\n        /* \"#utility.yul\":5093:5127   */\n      iszero\n      tag_161\n      jumpi\n        /* \"#utility.yul\":5107:5125   */\n      tag_162\n      tag_115\n      jump\t// in\n    tag_162:\n        /* \"#utility.yul\":5093:5127   */\n    tag_161:\n        /* \"#utility.yul\":5152:5153   */\n      dup3\n        /* \"#utility.yul\":5149:5150   */\n      dup3\n        /* \"#utility.yul\":5145:5154   */\n      sub\n        /* \"#utility.yul\":5137:5154   */\n      swap1\n      pop\n        /* \"#utility.yul\":4969:5160   */\n      swap3\n      swap2\n      pop\n      pop\n      jump\t// out\n        /* \"#utility.yul\":5166:5243   */\n    tag_101:\n        /* \"#utility.yul\":5203:5210   */\n      0x00\n        /* \"#utility.yul\":5232:5237   */\n      dup2\n        /* \"#utility.yul\":5221:5237   */\n      swap1\n      pop\n        /* \"#utility.yul\":5166:5243   */\n      swap2\n      swap1\n      pop\n      jump\t// out\n        /* \"#utility.yul\":5249:5556   */\n    tag_95:\n        /* \"#utility.yul\":5317:5318   */\n      0x00\n        /* \"#utility.yul\":5327:5440   */\n    tag_165:\n        /* \"#utility.yul\":5341:5347   */\n      dup4\n        /* \"#utility.yul\":5338:5339   */\n      dup2\n        /* \"#utility.yul\":5335:5348   */\n      lt\n        /* \"#utility.yul\":5327:5440   */\n      iszero\n      tag_167\n      jumpi\n        /* \"#utility.yul\":5426:5427   */\n      dup1\n        /* \"#utility.yul\":5421:5424   */\n      dup3\n        /* \"#utility.yul\":5417:5428   */\n      add\n        /* \"#utility.yul\":5411:5429   */\n      mload\n        /* \"#utility.yul\":5407:5408   */\n      dup2\n        /* \"#utility.yul\":5402:5405   */\n      dup5\n        /* \"#utility.yul\":5398:5409   */\n      add\n        /* \"#utility.yul\":5391:5430   */\n      mstore\n        /* \"#utility.yul\":5363:5365   */\n      0x20\n        /* \"#utility.yul\":5360:5361   */\n      dup2\n        /* \"#utility.yul\":5356:5366   */\n      add\n        /* \"#utility.yul\":5351:5366   */\n      swap1\n      pop\n        /* \"#utility.yul\":5327:5440   */\n      jump(tag_165)\n    tag_167:\n        /* \"#utility.yul\":5458:5464   */\n      dup4\n        /* \"#utility.yul\":5455:5456   */\n      dup2\n        /* \"#utility.yul\":5452:5465   */\n      gt\n        /* \"#utility.yul\":5449:5550   */\n      iszero\n      tag_168\n      jumpi\n        /* \"#utility.yul\":5538:5539   */\n      0x00\n        /* \"#utility.yul\":5529:5535   */\n      dup5\n        /* \"#utility.yul\":5524:5527   */\n      dup5\n        /* \"#utility.yul\":5520:5536   */\n      add\n        /* \"#utility.yul\":5513:5540   */\n      mstore\n        /* \"#utility.yul\":5449:5550   */\n    tag_168:\n        /* \"#utility.yul\":5298:5556   */\n      pop\n        /* \"#utility.yul\":5249:5556   */\n      pop\n      pop\n      pop\n      jump\t// out\n        /* \"#utility.yul\":5562:5795   */\n    tag_56:\n        /* \"#utility.yul\":5601:5604   */\n      0x00\n        /* \"#utility.yul\":5624:5648   */\n      tag_170\n        /* \"#utility.yul\":5642:5647   */\n      dup3\n        /* \"#utility.yul\":5624:5648   */\n      tag_101\n      jump\t// in\n    tag_170:\n        /* \"#utility.yul\":5615:5648   */\n      swap2\n      pop\n        /* \"#utility.yul\":5670:5736   */\n      0xffffffffffffffffffffffffffffffffffffffffffffffffffffffffffffffff\n        /* \"#utility.yul\":5663:5668   */\n      dup3\n        /* \"#utility.yul\":5660:5737   */\n      eq\n        /* \"#utility.yul\":5657:5760   */\n      iszero\n      tag_171\n      jumpi\n        /* \"#utility.yul\":5740:5758   */\n      tag_172\n      tag_115\n      jump\t// in\n    tag_172:\n        /* \"#utility.yul\":5657:5760   */\n    tag_171:\n        /* \"#utility.yul\":5787:5788   */\n      0x01\n        /* \"#utility.yul\":5780:5785   */\n      dup3\n        /* \"#utility.yul\":5776:5789   */\n      add\n        /* \"#utility.yul\":5769:5789   */\n      swap1\n      pop\n        /* \"#utility.yul\":5562:5795   */\n      swap2\n      swap1\n      pop\n      jump\t// out\n        /* \"#utility.yul\":5801:5977   */\n    tag_62:\n        /* \"#utility.yul\":5833:5834   */\n      0x00\n        /* \"#utility.yul\":5850:5870   */\n      tag_174\n        /* \"#utility.yul\":5868:5869   */\n      dup3\n        /* \"#utility.yul\":5850:5870   */\n      tag_101\n      jump\t// in\n    tag_174:\n        /* \"#utility.yul\":5845:5870   */\n      swap2\n      pop\n        /* \"#utility.yul\":5884:5904   */\n      tag_175\n        /* \"#utility.yul\":5902:5903   */\n      dup4\n        /* \"#utility.yul\":5884:5904   */\n      tag_101\n      jump\t// in\n    tag_175:\n        /* \"#utility.yul\":5879:5904   */\n      swap3\n      pop\n        /* \"#utility.yul\":5923:5924   */\n      dup3\n        /* \"#utility.yul\":5913:5948   */\n      tag_176\n      jumpi\n        /* \"#utility.yul\":5928:5946   */\n      tag_177\n      tag_121\n      jump\t// in\n    tag_177:\n        /* \"#utility.yul\":5913:5948   */\n    tag_176:\n        /* \"#utility.yul\":5969:5970   */\n      dup3\n        /* \"#utility.yul\":5966:5967   */\n      dup3\n        /* \"#utility.yul\":5962:5971   */\n      mod\n        /* \"#utility.yul\":5957:5971   */\n      swap1\n      pop\n        /* \"#utility.yul\":5801:5977   */\n      swap3\n      swap2\n      pop\n      pop\n      jump\t// out\n        /* \"#utility.yul\":5983:6163   */\n    tag_115:\n        /* \"#utility.yul\":6031:6108   */\n      0x4e487b7100000000000000000000000000000000000000000000000000000000\n        /* \"#utility.yul\":6028:6029   */\n      0x00\n        /* \"#utility.yul\":6021:6109   */\n      mstore\n        /* \"#utility.yul\":6128:6132   */\n      0x11\n        /* \"#utility.yul\":6125:6126   */\n      0x04\n        /* \"#utility.yul\":6118:6133   */\n      mstore\n        /* \"#utility.yul\":6152:6156   */\n      0x24\n        /* \"#utility.yul\":6149:6150   */\n      0x00\n        /* \"#utility.yul\":6142:6157   */\n      revert\n        /* \"#utility.yul\":6169:6349   */\n    tag_121:\n        /* \"#utility.yul\":6217:6294   */\n      0x4e487b7100000000000000000000000000000000000000000000000000000000\n        /* \"#utility.yul\":6214:6215   */\n      0x00\n        /* \"#utility.yul\":6207:6295   */\n      mstore\n        /* \"#utility.yul\":6314:6318   */\n      0x12\n        /* \"#utility.yul\":6311:6312   */\n      0x04\n        /* \"#utility.yul\":6304:6319   */\n      mstore\n        /* \"#utility.yul\":6338:6342   */\n      0x24\n        /* \"#utility.yul\":6335:6336   */\n      0x00\n        /* \"#utility.yul\":6328:6343   */\n      revert\n        /* \"#utility.yul\":6478:6595   */\n    tag_86:\n        /* \"#utility.yul\":6587:6588   */\n      0x00\n        /* \"#utility.yul\":6584:6585   */\n      dup1\n        /* \"#utility.yul\":6577:6589   */\n      revert\n        /* \"#utility.yul\":6601:6703   */\n    tag_97:\n        /* \"#utility.yul\":6642:6648   */\n      0x00\n        /* \"#utility.yul\":6693:6695   */\n      0x1f\n        /* \"#utility.yul\":6689:6696   */\n      not\n        /* \"#utility.yul\":6684:6686   */\n      0x1f\n        /* \"#utility.yul\":6677:6682   */\n      dup4\n        /* \"#utility.yul\":6673:6687   */\n      add\n        /* \"#utility.yul\":6669:6697   */\n      and\n        /* \"#utility.yul\":6659:6697   */\n      swap1\n      pop\n        /* \"#utility.yul\":6601:6703   */\n      swap2\n      swap1\n      pop\n      jump\t// out\n        /* \"#utility.yul\":6709:6811   */\n    tag_131:\n        /* \"#utility.yul\":6751:6759   */\n      0x00\n        /* \"#utility.yul\":6798:6803   */\n      dup2\n        /* \"#utility.yul\":6795:6796   */\n      0x01\n        /* \"#utility.yul\":6791:6804   */\n      shr\n        /* \"#utility.yul\":6770:6804   */\n      swap1\n      pop\n        /* \"#utility.yul\":6709:6811   */\n      swap2\n      swap1\n      pop\n      jump\t// out\n        /* \"#utility.yul\":6817:6939   */\n    tag_82:\n        /* \"#utility.yul\":6890:6914   */\n      tag_186\n        /* \"#utility.yul\":6908:6913   */\n      dup2\n        /* \"#utility.yul\":6890:6914   */\n      tag_101\n      jump\t// in\n    tag_186:\n        /* \"#utility.yul\":6883:6888   */\n      dup2\n        /* \"#utility.yul\":6880:6915   */\n      eq\n        /* \"#utility.yul\":6870:6933   */\n      tag_187\n      jumpi\n        /* \"#utility.yul\":6929:6930   */\n      0x00\n        /* \"#utility.yul\":6926:6927   */\n      dup1\n        /* \"#utility.yul\":6919:6931   */\n      revert\n        /* \"#utility.yul\":6870:6933   */\n    tag_187:\n        /* \"#utility.yul\":6817:6939   */\n      pop\n      jump\t// out\n\n    auxdata: 0xa26469706673582212203a56587856da929c358cd8f42a3d01fe7de72e6b6bbed2071dca1cfdacb6b9af64736f6c63430008070033\n}\n",
				"bytecode": {
					"linkReferences": {},
					"object": "608060405260008060006101000a81548160ff021916908315150217905550636247920060075534801561003257600080fd5b504260068190555060036005819055506001600381905550610894806100596000396000f3fe608060405234801561001057600080fd5b506004361061007d5760003560e01c80638899db5a1161005b5780638899db5a146100c6578063b76ab50f146100d0578063c56a0ef5146100ee578063da1569fb1461010c5761007d565b8063125873f7146100825780632b645fe0146100a05780634fb97829146100aa575b600080fd5b61008a61012a565b6040516100979190610452565b60405180910390f35b6100a8610158565b005b6100c460048036038101906100bf91906103bb565b610237565b005b6100ce610241565b005b6100d86102fd565b6040516100e59190610430565b60405180910390f35b6100f6610392565b6040516101039190610452565b60405180910390f35b61011461039c565b6040516101219190610452565b60405180910390f35b60006001151560008054906101000a900460ff1615151415610150576004549050610155565b600090505b90565b6006546007541115610198576018610e1060065460075461017991906106db565b61018391906104df565b61018d91906104df565b600481905550610235565b6018610e106007546006546101ad91906106db565b6101b791906104df565b6101c191906104df565b60048190555060016000806101000a81548160ff0219169083151502179055506000600190505b60045481116102335760646005546001546102039190610681565b61020d91906104df565b60015461021a9190610489565b600181905550808061022b9061074c565b9150506101e8565b505b565b8060018190555050565b60006001549050600080600090505b600a8311156102bb57600a836102669190610795565b9150600a8361027591906104df565b925060035460026102869190610563565b826102919190610681565b8161029c9190610489565b9050600360008154809291906102b19061074c565b9190505550610250565b600a836102c89190610795565b915060035460026102d99190610563565b826102e49190610681565b816102ef9190610489565b905080600281905550505050565b60606001151560008054906101000a900460ff1615151415610356576040518060400160405280600681526020017f426f72636c750000000000000000000000000000000000000000000000000000815250905061038f565b6040518060400160405280600e81526020017f4661697a20426f72637520796f6b00000000000000000000000000000000000081525090505b90565b6000600254905090565b6000600154905090565b6000813590506103b581610847565b92915050565b6000602082840312156103d1576103d0610824565b5b60006103df848285016103a6565b91505092915050565b60006103f38261046d565b6103fd8185610478565b935061040d818560208601610719565b61041681610829565b840191505092915050565b61042a8161070f565b82525050565b6000602082019050818103600083015261044a81846103e8565b905092915050565b60006020820190506104676000830184610421565b92915050565b600081519050919050565b600082825260208201905092915050565b60006104948261070f565b915061049f8361070f565b9250827fffffffffffffffffffffffffffffffffffffffffffffffffffffffffffffffff038211156104d4576104d36107c6565b5b828201905092915050565b60006104ea8261070f565b91506104f58361070f565b925082610505576105046107f5565b5b828204905092915050565b6000808291508390505b600185111561055a57808604811115610536576105356107c6565b5b60018516156105455780820291505b80810290506105538561083a565b945061051a565b94509492505050565b600061056e8261070f565b91506105798361070f565b92506105a67fffffffffffffffffffffffffffffffffffffffffffffffffffffffffffffffff84846105ae565b905092915050565b6000826105be576001905061067a565b816105cc576000905061067a565b81600181146105e257600281146105ec5761061b565b600191505061067a565b60ff8411156105fe576105fd6107c6565b5b8360020a915084821115610615576106146107c6565b5b5061067a565b5060208310610133831016604e8410600b84101617156106505782820a90508381111561064b5761064a6107c6565b5b61067a565b61065d8484846001610510565b92509050818404811115610674576106736107c6565b5b81810290505b9392505050565b600061068c8261070f565b91506106978361070f565b9250817fffffffffffffffffffffffffffffffffffffffffffffffffffffffffffffffff04831182151516156106d0576106cf6107c6565b5b828202905092915050565b60006106e68261070f565b91506106f18361070f565b925082821015610704576107036107c6565b5b828203905092915050565b6000819050919050565b60005b8381101561073757808201518184015260208101905061071c565b83811115610746576000848401525b50505050565b60006107578261070f565b91507fffffffffffffffffffffffffffffffffffffffffffffffffffffffffffffffff82141561078a576107896107c6565b5b600182019050919050565b60006107a08261070f565b91506107ab8361070f565b9250826107bb576107ba6107f5565b5b828206905092915050565b7f4e487b7100000000000000000000000000000000000000000000000000000000600052601160045260246000fd5b7f4e487b7100000000000000000000000000000000000000000000000000000000600052601260045260246000fd5b600080fd5b6000601f19601f8301169050919050565b60008160011c9050919050565b6108508161070f565b811461085b57600080fd5b5056fea26469706673582212203a56587856da929c358cd8f42a3d01fe7de72e6b6bbed2071dca1cfdacb6b9af64736f6c63430008070033",
					"opcodes": "PUSH1 0x80 PUSH1 0x40 MSTORE PUSH1 0x0 DUP1 PUSH1 0x0 PUSH2 0x100 EXP DUP2 SLOAD DUP2 PUSH1 0xFF MUL NOT AND SWAP1 DUP4 ISZERO ISZERO MUL OR SWAP1 SSTORE POP PUSH4 0x62479200 PUSH1 0x7 SSTORE CALLVALUE DUP1 ISZERO PUSH2 0x32 JUMPI PUSH1 0x0 DUP1 REVERT JUMPDEST POP TIMESTAMP PUSH1 0x6 DUP2 SWAP1 SSTORE POP PUSH1 0x3 PUSH1 0x5 DUP2 SWAP1 SSTORE POP PUSH1 0x1 PUSH1 0x3 DUP2 SWAP1 SSTORE POP PUSH2 0x894 DUP1 PUSH2 0x59 PUSH1 0x0 CODECOPY PUSH1 0x0 RETURN INVALID PUSH1 0x80 PUSH1 0x40 MSTORE CALLVALUE DUP1 ISZERO PUSH2 0x10 JUMPI PUSH1 0x0 DUP1 REVERT JUMPDEST POP PUSH1 0x4 CALLDATASIZE LT PUSH2 0x7D JUMPI PUSH1 0x0 CALLDATALOAD PUSH1 0xE0 SHR DUP1 PUSH4 0x8899DB5A GT PUSH2 0x5B JUMPI DUP1 PUSH4 0x8899DB5A EQ PUSH2 0xC6 JUMPI DUP1 PUSH4 0xB76AB50F EQ PUSH2 0xD0 JUMPI DUP1 PUSH4 0xC56A0EF5 EQ PUSH2 0xEE JUMPI DUP1 PUSH4 0xDA1569FB EQ PUSH2 0x10C JUMPI PUSH2 0x7D JUMP JUMPDEST DUP1 PUSH4 0x125873F7 EQ PUSH2 0x82 JUMPI DUP1 PUSH4 0x2B645FE0 EQ PUSH2 0xA0 JUMPI DUP1 PUSH4 0x4FB97829 EQ PUSH2 0xAA JUMPI JUMPDEST PUSH1 0x0 DUP1 REVERT JUMPDEST PUSH2 0x8A PUSH2 0x12A JUMP JUMPDEST PUSH1 0x40 MLOAD PUSH2 0x97 SWAP2 SWAP1 PUSH2 0x452 JUMP JUMPDEST PUSH1 0x40 MLOAD DUP1 SWAP2 SUB SWAP1 RETURN JUMPDEST PUSH2 0xA8 PUSH2 0x158 JUMP JUMPDEST STOP JUMPDEST PUSH2 0xC4 PUSH1 0x4 DUP1 CALLDATASIZE SUB DUP2 ADD SWAP1 PUSH2 0xBF SWAP2 SWAP1 PUSH2 0x3BB JUMP JUMPDEST PUSH2 0x237 JUMP JUMPDEST STOP JUMPDEST PUSH2 0xCE PUSH2 0x241 JUMP JUMPDEST STOP JUMPDEST PUSH2 0xD8 PUSH2 0x2FD JUMP JUMPDEST PUSH1 0x40 MLOAD PUSH2 0xE5 SWAP2 SWAP1 PUSH2 0x430 JUMP JUMPDEST PUSH1 0x40 MLOAD DUP1 SWAP2 SUB SWAP1 RETURN JUMPDEST PUSH2 0xF6 PUSH2 0x392 JUMP JUMPDEST PUSH1 0x40 MLOAD PUSH2 0x103 SWAP2 SWAP1 PUSH2 0x452 JUMP JUMPDEST PUSH1 0x40 MLOAD DUP1 SWAP2 SUB SWAP1 RETURN JUMPDEST PUSH2 0x114 PUSH2 0x39C JUMP JUMPDEST PUSH1 0x40 MLOAD PUSH2 0x121 SWAP2 SWAP1 PUSH2 0x452 JUMP JUMPDEST PUSH1 0x40 MLOAD DUP1 SWAP2 SUB SWAP1 RETURN JUMPDEST PUSH1 0x0 PUSH1 0x1 ISZERO ISZERO PUSH1 0x0 DUP1 SLOAD SWAP1 PUSH2 0x100 EXP SWAP1 DIV PUSH1 0xFF AND ISZERO ISZERO EQ ISZERO PUSH2 0x150 JUMPI PUSH1 0x4 SLOAD SWAP1 POP PUSH2 0x155 JUMP JUMPDEST PUSH1 0x0 SWAP1 POP JUMPDEST SWAP1 JUMP JUMPDEST PUSH1 0x6 SLOAD PUSH1 0x7 SLOAD GT ISZERO PUSH2 0x198 JUMPI PUSH1 0x18 PUSH2 0xE10 PUSH1 0x6 SLOAD PUSH1 0x7 SLOAD PUSH2 0x179 SWAP2 SWAP1 PUSH2 0x6DB JUMP JUMPDEST PUSH2 0x183 SWAP2 SWAP1 PUSH2 0x4DF JUMP JUMPDEST PUSH2 0x18D SWAP2 SWAP1 PUSH2 0x4DF JUMP JUMPDEST PUSH1 0x4 DUP2 SWAP1 SSTORE POP PUSH2 0x235 JUMP JUMPDEST PUSH1 0x18 PUSH2 0xE10 PUSH1 0x7 SLOAD PUSH1 0x6 SLOAD PUSH2 0x1AD SWAP2 SWAP1 PUSH2 0x6DB JUMP JUMPDEST PUSH2 0x1B7 SWAP2 SWAP1 PUSH2 0x4DF JUMP JUMPDEST PUSH2 0x1C1 SWAP2 SWAP1 PUSH2 0x4DF JUMP JUMPDEST PUSH1 0x4 DUP2 SWAP1 SSTORE POP PUSH1 0x1 PUSH1 0x0 DUP1 PUSH2 0x100 EXP DUP2 SLOAD DUP2 PUSH1 0xFF MUL NOT AND SWAP1 DUP4 ISZERO ISZERO MUL OR SWAP1 SSTORE POP PUSH1 0x0 PUSH1 0x1 SWAP1 POP JUMPDEST PUSH1 0x4 SLOAD DUP2 GT PUSH2 0x233 JUMPI PUSH1 0x64 PUSH1 0x5 SLOAD PUSH1 0x1 SLOAD PUSH2 0x203 SWAP2 SWAP1 PUSH2 0x681 JUMP JUMPDEST PUSH2 0x20D SWAP2 SWAP1 PUSH2 0x4DF JUMP JUMPDEST PUSH1 0x1 SLOAD PUSH2 0x21A SWAP2 SWAP1 PUSH2 0x489 JUMP JUMPDEST PUSH1 0x1 DUP2 SWAP1 SSTORE POP DUP1 DUP1 PUSH2 0x22B SWAP1 PUSH2 0x74C JUMP JUMPDEST SWAP2 POP POP PUSH2 0x1E8 JUMP JUMPDEST POP JUMPDEST JUMP JUMPDEST DUP1 PUSH1 0x1 DUP2 SWAP1 SSTORE POP POP JUMP JUMPDEST PUSH1 0x0 PUSH1 0x1 SLOAD SWAP1 POP PUSH1 0x0 DUP1 PUSH1 0x0 SWAP1 POP JUMPDEST PUSH1 0xA DUP4 GT ISZERO PUSH2 0x2BB JUMPI PUSH1 0xA DUP4 PUSH2 0x266 SWAP2 SWAP1 PUSH2 0x795 JUMP JUMPDEST SWAP2 POP PUSH1 0xA DUP4 PUSH2 0x275 SWAP2 SWAP1 PUSH2 0x4DF JUMP JUMPDEST SWAP3 POP PUSH1 0x3 SLOAD PUSH1 0x2 PUSH2 0x286 SWAP2 SWAP1 PUSH2 0x563 JUMP JUMPDEST DUP3 PUSH2 0x291 SWAP2 SWAP1 PUSH2 0x681 JUMP JUMPDEST DUP2 PUSH2 0x29C SWAP2 SWAP1 PUSH2 0x489 JUMP JUMPDEST SWAP1 POP PUSH1 0x3 PUSH1 0x0 DUP2 SLOAD DUP1 SWAP3 SWAP2 SWAP1 PUSH2 0x2B1 SWAP1 PUSH2 0x74C JUMP JUMPDEST SWAP2 SWAP1 POP SSTORE POP PUSH2 0x250 JUMP JUMPDEST PUSH1 0xA DUP4 PUSH2 0x2C8 SWAP2 SWAP1 PUSH2 0x795 JUMP JUMPDEST SWAP2 POP PUSH1 0x3 SLOAD PUSH1 0x2 PUSH2 0x2D9 SWAP2 SWAP1 PUSH2 0x563 JUMP JUMPDEST DUP3 PUSH2 0x2E4 SWAP2 SWAP1 PUSH2 0x681 JUMP JUMPDEST DUP2 PUSH2 0x2EF SWAP2 SWAP1 PUSH2 0x489 JUMP JUMPDEST SWAP1 POP DUP1 PUSH1 0x2 DUP2 SWAP1 SSTORE POP POP POP POP JUMP JUMPDEST PUSH1 0x60 PUSH1 0x1 ISZERO ISZERO PUSH1 0x0 DUP1 SLOAD SWAP1 PUSH2 0x100 EXP SWAP1 DIV PUSH1 0xFF AND ISZERO ISZERO EQ ISZERO PUSH2 0x356 JUMPI PUSH1 0x40 MLOAD DUP1 PUSH1 0x40 ADD PUSH1 0x40 MSTORE DUP1 PUSH1 0x6 DUP2 MSTORE PUSH1 0x20 ADD PUSH32 0x426F72636C750000000000000000000000000000000000000000000000000000 DUP2 MSTORE POP SWAP1 POP PUSH2 0x38F JUMP JUMPDEST PUSH1 0x40 MLOAD DUP1 PUSH1 0x40 ADD PUSH1 0x40 MSTORE DUP1 PUSH1 0xE DUP2 MSTORE PUSH1 0x20 ADD PUSH32 0x4661697A20426F72637520796F6B000000000000000000000000000000000000 DUP2 MSTORE POP SWAP1 POP JUMPDEST SWAP1 JUMP JUMPDEST PUSH1 0x0 PUSH1 0x2 SLOAD SWAP1 POP SWAP1 JUMP JUMPDEST PUSH1 0x0 PUSH1 0x1 SLOAD SWAP1 POP SWAP1 JUMP JUMPDEST PUSH1 0x0 DUP2 CALLDATALOAD SWAP1 POP PUSH2 0x3B5 DUP2 PUSH2 0x847 JUMP JUMPDEST SWAP3 SWAP2 POP POP JUMP JUMPDEST PUSH1 0x0 PUSH1 0x20 DUP3 DUP5 SUB SLT ISZERO PUSH2 0x3D1 JUMPI PUSH2 0x3D0 PUSH2 0x824 JUMP JUMPDEST JUMPDEST PUSH1 0x0 PUSH2 0x3DF DUP5 DUP3 DUP6 ADD PUSH2 0x3A6 JUMP JUMPDEST SWAP2 POP POP SWAP3 SWAP2 POP POP JUMP JUMPDEST PUSH1 0x0 PUSH2 0x3F3 DUP3 PUSH2 0x46D JUMP JUMPDEST PUSH2 0x3FD DUP2 DUP6 PUSH2 0x478 JUMP JUMPDEST SWAP4 POP PUSH2 0x40D DUP2 DUP6 PUSH1 0x20 DUP7 ADD PUSH2 0x719 JUMP JUMPDEST PUSH2 0x416 DUP2 PUSH2 0x829 JUMP JUMPDEST DUP5 ADD SWAP2 POP POP SWAP3 SWAP2 POP POP JUMP JUMPDEST PUSH2 0x42A DUP2 PUSH2 0x70F JUMP JUMPDEST DUP3 MSTORE POP POP JUMP JUMPDEST PUSH1 0x0 PUSH1 0x20 DUP3 ADD SWAP1 POP DUP2 DUP2 SUB PUSH1 0x0 DUP4 ADD MSTORE PUSH2 0x44A DUP2 DUP5 PUSH2 0x3E8 JUMP JUMPDEST SWAP1 POP SWAP3 SWAP2 POP POP JUMP JUMPDEST PUSH1 0x0 PUSH1 0x20 DUP3 ADD SWAP1 POP PUSH2 0x467 PUSH1 0x0 DUP4 ADD DUP5 PUSH2 0x421 JUMP JUMPDEST SWAP3 SWAP2 POP POP JUMP JUMPDEST PUSH1 0x0 DUP2 MLOAD SWAP1 POP SWAP2 SWAP1 POP JUMP JUMPDEST PUSH1 0x0 DUP3 DUP3 MSTORE PUSH1 0x20 DUP3 ADD SWAP1 POP SWAP3 SWAP2 POP POP JUMP JUMPDEST PUSH1 0x0 PUSH2 0x494 DUP3 PUSH2 0x70F JUMP JUMPDEST SWAP2 POP PUSH2 0x49F DUP4 PUSH2 0x70F JUMP JUMPDEST SWAP3 POP DUP3 PUSH32 0xFFFFFFFFFFFFFFFFFFFFFFFFFFFFFFFFFFFFFFFFFFFFFFFFFFFFFFFFFFFFFFFF SUB DUP3 GT ISZERO PUSH2 0x4D4 JUMPI PUSH2 0x4D3 PUSH2 0x7C6 JUMP JUMPDEST JUMPDEST DUP3 DUP3 ADD SWAP1 POP SWAP3 SWAP2 POP POP JUMP JUMPDEST PUSH1 0x0 PUSH2 0x4EA DUP3 PUSH2 0x70F JUMP JUMPDEST SWAP2 POP PUSH2 0x4F5 DUP4 PUSH2 0x70F JUMP JUMPDEST SWAP3 POP DUP3 PUSH2 0x505 JUMPI PUSH2 0x504 PUSH2 0x7F5 JUMP JUMPDEST JUMPDEST DUP3 DUP3 DIV SWAP1 POP SWAP3 SWAP2 POP POP JUMP JUMPDEST PUSH1 0x0 DUP1 DUP3 SWAP2 POP DUP4 SWAP1 POP JUMPDEST PUSH1 0x1 DUP6 GT ISZERO PUSH2 0x55A JUMPI DUP1 DUP7 DIV DUP2 GT ISZERO PUSH2 0x536 JUMPI PUSH2 0x535 PUSH2 0x7C6 JUMP JUMPDEST JUMPDEST PUSH1 0x1 DUP6 AND ISZERO PUSH2 0x545 JUMPI DUP1 DUP3 MUL SWAP2 POP JUMPDEST DUP1 DUP2 MUL SWAP1 POP PUSH2 0x553 DUP6 PUSH2 0x83A JUMP JUMPDEST SWAP5 POP PUSH2 0x51A JUMP JUMPDEST SWAP5 POP SWAP5 SWAP3 POP POP POP JUMP JUMPDEST PUSH1 0x0 PUSH2 0x56E DUP3 PUSH2 0x70F JUMP JUMPDEST SWAP2 POP PUSH2 0x579 DUP4 PUSH2 0x70F JUMP JUMPDEST SWAP3 POP PUSH2 0x5A6 PUSH32 0xFFFFFFFFFFFFFFFFFFFFFFFFFFFFFFFFFFFFFFFFFFFFFFFFFFFFFFFFFFFFFFFF DUP5 DUP5 PUSH2 0x5AE JUMP JUMPDEST SWAP1 POP SWAP3 SWAP2 POP POP JUMP JUMPDEST PUSH1 0x0 DUP3 PUSH2 0x5BE JUMPI PUSH1 0x1 SWAP1 POP PUSH2 0x67A JUMP JUMPDEST DUP2 PUSH2 0x5CC JUMPI PUSH1 0x0 SWAP1 POP PUSH2 0x67A JUMP JUMPDEST DUP2 PUSH1 0x1 DUP2 EQ PUSH2 0x5E2 JUMPI PUSH1 0x2 DUP2 EQ PUSH2 0x5EC JUMPI PUSH2 0x61B JUMP JUMPDEST PUSH1 0x1 SWAP2 POP POP PUSH2 0x67A JUMP JUMPDEST PUSH1 0xFF DUP5 GT ISZERO PUSH2 0x5FE JUMPI PUSH2 0x5FD PUSH2 0x7C6 JUMP JUMPDEST JUMPDEST DUP4 PUSH1 0x2 EXP SWAP2 POP DUP5 DUP3 GT ISZERO PUSH2 0x615 JUMPI PUSH2 0x614 PUSH2 0x7C6 JUMP JUMPDEST JUMPDEST POP PUSH2 0x67A JUMP JUMPDEST POP PUSH1 0x20 DUP4 LT PUSH2 0x133 DUP4 LT AND PUSH1 0x4E DUP5 LT PUSH1 0xB DUP5 LT AND OR ISZERO PUSH2 0x650 JUMPI DUP3 DUP3 EXP SWAP1 POP DUP4 DUP2 GT ISZERO PUSH2 0x64B JUMPI PUSH2 0x64A PUSH2 0x7C6 JUMP JUMPDEST JUMPDEST PUSH2 0x67A JUMP JUMPDEST PUSH2 0x65D DUP5 DUP5 DUP5 PUSH1 0x1 PUSH2 0x510 JUMP JUMPDEST SWAP3 POP SWAP1 POP DUP2 DUP5 DIV DUP2 GT ISZERO PUSH2 0x674 JUMPI PUSH2 0x673 PUSH2 0x7C6 JUMP JUMPDEST JUMPDEST DUP2 DUP2 MUL SWAP1 POP JUMPDEST SWAP4 SWAP3 POP POP POP JUMP JUMPDEST PUSH1 0x0 PUSH2 0x68C DUP3 PUSH2 0x70F JUMP JUMPDEST SWAP2 POP PUSH2 0x697 DUP4 PUSH2 0x70F JUMP JUMPDEST SWAP3 POP DUP2 PUSH32 0xFFFFFFFFFFFFFFFFFFFFFFFFFFFFFFFFFFFFFFFFFFFFFFFFFFFFFFFFFFFFFFFF DIV DUP4 GT DUP3 ISZERO ISZERO AND ISZERO PUSH2 0x6D0 JUMPI PUSH2 0x6CF PUSH2 0x7C6 JUMP JUMPDEST JUMPDEST DUP3 DUP3 MUL SWAP1 POP SWAP3 SWAP2 POP POP JUMP JUMPDEST PUSH1 0x0 PUSH2 0x6E6 DUP3 PUSH2 0x70F JUMP JUMPDEST SWAP2 POP PUSH2 0x6F1 DUP4 PUSH2 0x70F JUMP JUMPDEST SWAP3 POP DUP3 DUP3 LT ISZERO PUSH2 0x704 JUMPI PUSH2 0x703 PUSH2 0x7C6 JUMP JUMPDEST JUMPDEST DUP3 DUP3 SUB SWAP1 POP SWAP3 SWAP2 POP POP JUMP JUMPDEST PUSH1 0x0 DUP2 SWAP1 POP SWAP2 SWAP1 POP JUMP JUMPDEST PUSH1 0x0 JUMPDEST DUP4 DUP2 LT ISZERO PUSH2 0x737 JUMPI DUP1 DUP3 ADD MLOAD DUP2 DUP5 ADD MSTORE PUSH1 0x20 DUP2 ADD SWAP1 POP PUSH2 0x71C JUMP JUMPDEST DUP4 DUP2 GT ISZERO PUSH2 0x746 JUMPI PUSH1 0x0 DUP5 DUP5 ADD MSTORE JUMPDEST POP POP POP POP JUMP JUMPDEST PUSH1 0x0 PUSH2 0x757 DUP3 PUSH2 0x70F JUMP JUMPDEST SWAP2 POP PUSH32 0xFFFFFFFFFFFFFFFFFFFFFFFFFFFFFFFFFFFFFFFFFFFFFFFFFFFFFFFFFFFFFFFF DUP3 EQ ISZERO PUSH2 0x78A JUMPI PUSH2 0x789 PUSH2 0x7C6 JUMP JUMPDEST JUMPDEST PUSH1 0x1 DUP3 ADD SWAP1 POP SWAP2 SWAP1 POP JUMP JUMPDEST PUSH1 0x0 PUSH2 0x7A0 DUP3 PUSH2 0x70F JUMP JUMPDEST SWAP2 POP PUSH2 0x7AB DUP4 PUSH2 0x70F JUMP JUMPDEST SWAP3 POP DUP3 PUSH2 0x7BB JUMPI PUSH2 0x7BA PUSH2 0x7F5 JUMP JUMPDEST JUMPDEST DUP3 DUP3 MOD SWAP1 POP SWAP3 SWAP2 POP POP JUMP JUMPDEST PUSH32 0x4E487B7100000000000000000000000000000000000000000000000000000000 PUSH1 0x0 MSTORE PUSH1 0x11 PUSH1 0x4 MSTORE PUSH1 0x24 PUSH1 0x0 REVERT JUMPDEST PUSH32 0x4E487B7100000000000000000000000000000000000000000000000000000000 PUSH1 0x0 MSTORE PUSH1 0x12 PUSH1 0x4 MSTORE PUSH1 0x24 PUSH1 0x0 REVERT JUMPDEST PUSH1 0x0 DUP1 REVERT JUMPDEST PUSH1 0x0 PUSH1 0x1F NOT PUSH1 0x1F DUP4 ADD AND SWAP1 POP SWAP2 SWAP1 POP JUMP JUMPDEST PUSH1 0x0 DUP2 PUSH1 0x1 SHR SWAP1 POP SWAP2 SWAP1 POP JUMP JUMPDEST PUSH2 0x850 DUP2 PUSH2 0x70F JUMP JUMPDEST DUP2 EQ PUSH2 0x85B JUMPI PUSH1 0x0 DUP1 REVERT JUMPDEST POP JUMP INVALID LOG2 PUSH5 0x6970667358 0x22 SLT KECCAK256 GASPRICE JUMP PC PUSH25 0x56DA929C358CD8F42A3D01FE7DE72E6B6BBED2071DCA1CFDAC 0xB6 0xB9 0xAF PUSH5 0x736F6C6343 STOP ADDMOD SMOD STOP CALLER "
				},
				"gasEstimates": {
					"creation": {
						"codeDepositCost": "439200",
						"executionCost": "113188",
						"totalCost": "552388"
					},
					"external": {
						"compareDates()": "infinite",
						"encrypt()": "infinite",
						"enterYourDept(uint256)": "22565",
						"getDept()": "2503",
						"isUserHasDept()": "infinite",
						"showDayDiff()": "4620",
						"showEncrypt()": "2481"
					}
				},
				"methodIdentifiers": {
					"compareDates()": "2b645fe0",
					"encrypt()": "8899db5a",
					"enterYourDept(uint256)": "4fb97829",
					"getDept()": "da1569fb",
					"isUserHasDept()": "b76ab50f",
					"showDayDiff()": "125873f7",
					"showEncrypt()": "c56a0ef5"
				}
			},
			"userdoc": {
				"kind": "user",
				"methods": {},
				"version": 1
			}
		}
	}
}